:020000040800F2
:10000000A004002005010008AB110008CD10000875
:10001000A9110008C101000809150008000000002E
:10002000000000000000000000000000AF11000808
:10003000C301000800000000AD110008B111000864
:100040001F0100081F0100081F0100081F01000810
:100050001F0100081F0100081F0100081F01000800
:100060001F0100081F0100081F0100081F010008F0
:100070001F0100081F0100081F0100081F010008E0
:100080001F0100081F0100081F0100081F010008D0
:100090001F0100081F0100081F0100081F010008C0
:1000A0001F0100081F0100081F0100081F010008B0
:1000B0001F0100081F0100081F0100081F010008A0
:1000C0001F0100081F0100081F0100081F01000890
:1000D0001F010008FD1400081F0100081F0100088F
:1000E0001F0100081F0100081F010008DFF810D0E1
:1000F00000F054F800480047C1180008AFF3008032
:10010000A00400200648804706480047FEE7FEE7B7
:10011000FEE7FEE7FEE7FEE7FEE7FEE7FEE7FEE7B7
:1001200013120008ED00000840EA01039B0703D00A
:1001300009E008C9121F08C0042AFAD203E011F826
:10014000013B00F8013B521EF9D27047D2B201E0E8
:1001500000F8012B491EFBD270470022F6E710B5CC
:1001600013460A4604461946FFF7F0FF204610BD25
:1001700030B50B46014600202022012409E021FA77
:1001800002F59D4205D303FA02F5491B04FA02F574
:100190002844151EA2F10102F1DC30BD064C074DCA
:1001A00006E0E06840F0010394E807009847103447
:1001B000AC42F6D3FFF79EFFCC190008EC190008FB
:1001C000FEE7704710B590F821100022022905D0F3
:1001D0000421816380F82020012010BD01680B6894
:1001E00023F00E030B6001680B6823F001030B6022
:1001F00090F84030C46B012101FA03F3636080F88A
:10020000211080F82020104610BD000010B590F895
:1002100021100024022903D00421816301243DE040
:1002200001680A6822F00E020A6001680A6822F07A
:1002300001020A601A4A0168914201D1012121E0BC
:10024000174A1432914201D110211BE0144A28327E
:10025000914201D1891515E0114A3C32914201D1F8
:1002600089140FE00E4A5032914202D14FF480318E
:1002700008E00B4A6432914202D14FF4801101E050
:100280004FF08071064A083A5160012180F8211030
:10029000002180F82010416B01B18847204610BD35
:1002A0000800024070B5044600F004F90546601CE1
:1002B00002D004480078044400F0FCF8401BA0423F
:1002C000FAD370BD000000202DE9F84FDFF8B89197
:1002D000002409F1040A0AF1040B23460F270BF14D
:1002E000040EC9E00125A5402A40AA427DD1674EEF
:1002F000D1F804C0ACEB0608B44532D014DCBCF134
:10030000030F3AD009DCBCF1000F2AD0BCF1010F79
:100310001CD0BCF1020F31D11DE0BCF1110F17D080
:10032000BCF1120F2AD119E0B8F5881F19D006DCEC
:10033000B8F5803F15D0B8F5801F1FD111E0B8F592
:10034000001F0ED0B8F5041F18D10AE0CB6815E0E5
:10035000CB681B1D12E0CB6808330FE0CB680C3371
:100360000CE08B682BB1012B4FF0080303D04561E3
:1003700004E0042302E0056100E00023FF2A01D825
:10038000064601E000F104064FEA840501D9A5F113
:100390002005D6F8008007FA05FC28EA0C0803FAC5
:1003A00005F548EA0508C6F800804D68ED0062D5FD
:1003B000374DAE6946F00106AE61AD6924F0030623
:1003C00005F001050095334D06EB050CDCF80850EF
:1003D000A607360F07FA06F825EA0805DFF8B88001
:1003E000404503D14FF0000817E044E0DFF8AC804F
:1003F000404502D14FF001080FE0DFF8A4804045EE
:1004000002D14FF0020808E0DFF89880404502D1A1
:100410004FF0030801E04FF0040808FA06F848EA34
:100420000508CCF808804D68D9F80060ED034D460A
:1004300001D5164300E096432E604D68DAF800605F
:10044000AD03554601D5164300E096432E604D6836
:10045000DBF80060ED025D4601D5164300E09643EF
:100460002E604D68DEF80060AD02754601D516437A
:1004700000E096432E60641C0D682A46E5407FF438
:1004800031AFBDE8F88F00000004014000001110FA
:10049000001002400000014000080140000C014033
:1004A00000100140001401400AB1016170470904C5
:1004B000FBE7000001488068704700000000002052
:1004C0000248816802781144816070470000002072
:1004D000074810B5016841F010010160032000F0E9
:1004E00075F8002000F006F800F024F8002010BD98
:1004F0000020024070B50D4D04464FF47A71287803
:10050000B1FBF0F00A490968B1FBF0F000F0ECFA39
:1005100048B9102C07D200222146501E00F036F8B0
:1005200000206C6070BD012070BD00000000002044
:100530000C0000200C4808B5816941F0010181617F
:10054000816901F001010091C16941F08051C161EF
:10055000C06900F0805000900448416821F0E061DB
:1005600041F00071416008BD0010024000000140F0
:10057000002809DB00F01F020121914040098000A2
:1005800000F1E020C0F8001170470000F0B40E4BFD
:100590001B680C46C3F30223C3F10705042D00D9E1
:1005A0000425191D072901D2002300E0DB1E0126C6
:1005B00006FA05F1491E214099409E40761E1640DC
:1005C0003143F0BC00F0B6BF0CED00E0064900F08E
:1005D000070208684FF6FF03184040EA0220034A6A
:1005E00010430860704700000CED00E00000FA05C1
:1005F0002DE9F0470F46050061D0434E306800F00A
:100600000700B84209D2306820F007003843306054
:10061000306800F00700B84251D128683B4C810790
:1006200012D5400703D5606840F4E0606060287828
:10063000000703D5606840F4605060606068A96896
:1006400020F0F000084360602878C00728D0686870
:10065000012810D02168022810D0890700292EDA3D
:10066000616821F0030101436160FFF723FF8046C9
:1006700041F288390DE021688903EFE78901EDE750
:10068000FFF718FFA0EB0801494502D90320BDE898
:10069000F0876068696800F00C00B0EB810FEFD163
:1006A000306800F00700B8420BD9306820F007002E
:1006B00038433060306800F00700B84201D00120B4
:1006C000E5E72878400705D56068E96820F4E06030
:1006D000084360602878000706D56068296920F41F
:1006E000605040EAC100606000F038F86168084A74
:1006F000C1F30311515CC840064908600648006810
:10070000FFF7F8FE0020C2E7002002400010024080
:10071000B21900080C00002004000020044805491C
:1007200000684968044AC1F30221515CC84070471F
:100730000C00002000100240C219000804480549BE
:1007400000684968044AC1F3C221515CC84070473F
:100750000C00002000100240C219000812A185B050
:100760000FC98DE80F0014A0144A00680490516866
:10077000134801F00C03042B10D0082B0ED1C1F349
:100780008343C9031DF803000AD5516804AAC1F3C5
:100790004041515C0A4A5043B0FBF1F005B070474C
:1007A00008494843FAE70000020304050607080960
:1007B0000A0B0C0D0E0F1010010200000010024079
:1007C00000127A0000093D002DE9F84F040070D0B6
:1007D0002078C04DC00749D06868C0F38100012867
:1007E00007D06868C0F38100022809D16868C00397
:1007F00006D52868800339D560680028E7D035E041
:100800006068B0F5803F0BD010B1B0F5A02F11D0CB
:10081000286820F480302860286820F4802002E0D6
:10082000286840F480302860606890B1FFF742FE8D
:1008300006460AE0286840F480202860F0E700BF00
:10084000FFF738FE801B642873D828688003F7D52B
:100850000CE0FFF72FFE064605E000BFFFF72AFE7B
:10086000801B6428F0D828688003F7D420789A4E3B
:1008700080074FF001094FF0000839D5686810F083
:100880000C0F07D06868C0F38100022809D168689E
:10089000C00306D42868800714D52069012808D130
:1008A00010E02069B0B1C6F80090FFF703FE0746DC
:1008B00005E00AE1FFF7FEFDC01B0228C4D8286846
:1008C0008007F7D52868616920F0F80040EAC10088
:1008D00028600DE0C6F80080FFF7ECFD074604E055
:1008E000FFF7E8FDC01B022823D828688007F7D44B
:1008F000207800072CD57948A169D9B1C0F80090BB
:10090000FFF7D8FD074604E0FFF7D4FDC01B02281F
:100910000FD8686A8007F7D571484FF4FA5100681C
:10092000B0FBF1F0009000BF0098411E0091FAD298
:100930000EE080E0C0F80080FFF7BCFD074604E051
:10094000FFF7B8FDC01B022875D8686A8007F7D486
:100950002078400760D5E8690027C00008D4E8691E
:1009600040F08050E861E869012700F08050009075
:100970005C480168C90513D40168834641F480715D
:100980000160FFF797FD824606E000BFFFF792FD8A
:10099000A0EB0A0064284ED8DBF80000C005F5D5AE
:1009A000E06801280AD008B1052813D0286A20F091
:1009B00001002862286A20F0040002E0286A40F062
:1009C00001002862E06841F2883B98B1FFF772FDB0
:1009D00082460BE0286A40F004002862EEE700BF80
:1009E000FFF768FDA0EB0A0159455AD8286A80072D
:1009F000F6D50CE0FFF75EFD824605E0FFF75AFDF5
:100A0000A0EB0A0159454CD8286A8007F6D41FB1DB
:100A1000E86920F08050E861E06988B36968C1F353
:100A20008101022944D00228C6F8608004D0FFF773
:100A300041FD044638E034E0FFF73CFD074604E0A2
:100A4000FFF738FDC01B02282BD828688001F7D497
:100A5000206AB0F5803F05D16868A16820F40030B5
:100A600008436860D4E908010843696821F47411F7
:100A700008436860C6F86090FFF71CFD044606E076
:100A800025E000BFFFF716FD001B022809D82868E3
:100A90008001F7D51BE000BFFFF70CFD001B02280B
:100AA00002D90320BDE8F88F28688001F4D40EE055
:100AB0000128F7D06868226A00F48031914204D19D
:100AC000616A00F47010884201D00120EAE700203A
:100AD000E8E7000000100240000042428004424269
:100AE0000C0000200070004010B5401EB0F1807F67
:100AF00001D3012010BD4FF0E02460610F21601789
:100B000000F018FD0020A06107202061002010BD2A
:100B100070B590F83C20012A26D0012480F83C4092
:100B2000022280F83D2003685A689D6822F0700612
:100B30000A6832435A600D4B02689A4208D0B2F1FB
:100B4000804F05D00A4B9A4202D00A4B9A4204D1F8
:100B5000496825F080031943916080F83D400021E9
:100B600080F83C10084670BD022070BD002C01408A
:100B7000000400400008004010B5040003D094F8C1
:100B80003D0010B107E0012010BD002084F83C00BA
:100B9000204600F01FF8022084F83D00211D206847
:100BA00000F038FB012084F8460084F83E0084F809
:100BB0003F0084F8400084F8410084F8420084F843
:100BC000430084F8440084F8450084F83D00002088
:100BD00010BD000008B50068B0F1804F08D105488D
:100BE000C16941F00101C161C06900F001000090DC
:100BF00008BD00000010024090F83D10012901D00E
:100C000001207047022180F83D1000680B4988429E
:100C100008D0B0F1804F05D00949884202D0094977
:100C2000884204D1816801F00701062903D00168D8
:100C300041F001010160002070470000002C0140DC
:100C4000000400400008004070B5044690F83C00E5
:100C5000012817D0012584F83C50022084F83D007B
:100C60002068826822F0770222F47F42826008685E
:100C7000502830D00DDC20284DD005DC98B310284A
:100C80003BD148E0022070BD302844D0402834D108
:100C900039E0602828D0702806D0B0F5805F2CD0CD
:100CA000B0F5005F29D10AE0CB68D1E901212068C5
:100CB00000F0E6FA2068816841F0770109E0CB682E
:100CC000D1E90121206800F0DBFA2068816841F455
:100CD0008041816011E0CA684968206800F0E2FA4A
:100CE0005021206807E016E0CA684968206800F0D3
:100CF000EAFA6021206800F0CDFA84F83D50002027
:100D000084F83C0070BDCA684968206800F0CAFADF
:100D100040212068EFE7226801461046EBE7704764
:100D200070470000F8B5026804461068D16853693E
:100D300010F00F0F4FF0000553D003F0010601F43F
:100D4000907737435FD0C20705D0CA0503D5226C20
:100D500042F001022264420705D5DA0703D0226C73
:100D600042F002022264820705D5DA0703D0226C22
:100D700042F004022264020707D501F02002324348
:100D800003D0226C42F008022264226C002A34D084
:100D9000800604D5880602D5204600F0C6FA2068F1
:100DA0004069216CC0F38010090700D430B320469D
:100DB00000F0A3FA2068416949061BD5416921F07A
:100DC00040014161A06BA8B158494163A06BFFF796
:100DD0001DFA002811D0A06B416B01B0BDE8F040B6
:100DE000084783060FD58B060DD52046BDE8F84091
:100DF00000F09BBA2046FFF793FFF8BD2046FFF7AF
:100E00008FFF2564F8BD266B2023012E52D1C60624
:100E100050D5CE064ED510685068009050694006F7
:100E20002AD5A16B086840680004000CEAD0A68DA2
:100E30008642E7D9E0858869202818D0D06820F458
:100E40008070D0602068416921F001014161206813
:100E5000416921F04001416184F83E3025632068FA
:100E6000C16821F01001C160A06BFFF7ABF9A08D44
:100E7000E18D401A81B219E0A08DE18D401A81B256
:100E8000E08D0028BED00029BCD0D06820F490703E
:100E9000D0602068426922F00102426184F83E304D
:100EA00025632068C26822F01002C2602046FFF766
:100EB00036FFF8BD05062BD50D0629D594F83D0063
:100EC0002128F6D1A068B0F5805F01D12069B0B1CA
:100ED000206A411C2162216800784860E08C401E35
:100EE0000004000CE084E4D12068C16821F0800196
:100EF000C1602068C16841F04001C160F8BD206A4E
:100F00000088C0F308005060206A801C2062E5E77A
:100F10004006F3D54806F1D5D168204621F04001BE
:100F2000D16084F83D3000F0D0F8F8BDEB12000835
:100F300070B5040004D094F83D00002510B106E01F
:100F4000012070BD84F83C50204600F023F8242096
:100F500084F83D002068C16821F40051C16020463A
:100F600000F03EFA2068016921F490410161206897
:100F7000416921F02A0141612068C16841F40051B2
:100F8000C1602564202084F83D0084F83E000020E4
:100F900070BD000030B585B0002400940194029427
:100FA00003940068184988422CD11848816941F49B
:100FB00080418161816901F480410491816941F03E
:100FC000040181618069124D00F0040004904FF427
:100FD000007000900220019003200390694628468B
:100FE000FFF772F92815CDE90004694628460294F6
:100FF000FFF76AF9002211462520FFF7C7FA2520DE
:10100000FFF7B6FA05B030BD0038014000100240CD
:1010100000080140704700002DE9F843044690F8AD
:101020003D001F4616460D4620284CD1C5B1BEB125
:1010300094F83C00012846D0012084F83C004FF091
:101040000008C4F84080212084F83D00FFF732FA00
:10105000A6848146E684A068B0F5805F03D004E0F2
:101060000120BDE8F883206928B12E465FF0000515
:1010700084F83C800EE00026FAE78021204600F04C
:101080000BFAA0B9AEB116F8010B21684860E08CEC
:10109000401EE084E08C4B464FF000020097002891
:1010A000EBD14FF04001204600F0F6F930B10320BB
:1010B000D7E735F8020BC0F30800E6E7202084F8F4
:1010C0003D000020CDE70220CBE77047FEE700009F
:1010D00070B586B0002418480094019402940394DB
:1010E000816941F010018161816901F01001049171
:1010F000816941F020018161816901F02001049141
:10110000816941F00401816180690C4E00F00400A6
:101110004FF400550490002229463046FFF7C4F9E9
:1011200001200095CDE90104022003906946304674
:10113000FFF7CAF806B070BD001002400010014071
:1011400010B586B0002417480094019402940394CB
:1011500004944FF08041059401604721C0E90114D7
:101160004FF6FF71C0E9031480218161FFF704FD90
:1011700008B172B6FEE74FF4805000906946094806
:10118000FFF762FD08B172B6FEE7049404A90548B2
:101190000594FFF7BDFC002801D072B6FEE706B04B
:1011A00010BD000010000020FEE7FEE7704770470A
:1011B000FFF786B930B58FB028216846FEF7CDFF1E
:1011C00014210AA8FEF7C9FF01210804CDE9001087
:1011D0000024029402250491CDE907504FF4E01059
:1011E00009906846FFF7F0FA08B172B6FEE70F20E3
:1011F000CDE90A054FF48060CDE90C4002210AA830
:101200000E94FFF7F5F9002801D072B6FEE70FB093
:1012100030BD7047F0B50268164B174C174D4FF0B4
:101220008047984205D0B84203D0A04201D0A842DE
:1012300003D122F070064A683243984205D0B84282
:1012400003D0A04201D0A84203D122F44074CA685E
:1012500022434C6922F08002224302608A68C26203
:101260000A688262984201D10969016301214161E2
:10127000F0BD0000002C01400004004000080040C8
:1012800010B5846842EA032224F47F440A432243CF
:10129000826010BD826822F070020A4342F00701AA
:1012A0008160704710B5036A046A24F00104046287
:1012B000846924F0F00444EA021423F00A020A4389
:1012C0008461026210BD10B5036A23F0100303624B
:1012D0008369046A23F4704343EA023224F0A003D2
:1012E00043EA01118261016210BD10B5406A00211C
:1012F000C185C184FFF714FD10BD0168CA6822F4DE
:101300009072CA6001684A6922F001024A61016B69
:10131000012904D10168CA6822F01002CA602021A4
:1013200080F83E1000210163704708B590F83E1028
:10133000222901D0022008BD82684FF480539A42CE
:1013400001D1016921B1816A9A421BD04AB10AE0F8
:101350000268816A5268C2F308020A80816A891CA5
:1013600008E0026972B10268526802F07F020A70F6
:10137000816A491C8162C18D491E0904090CC1851D
:1013800003D019E002685268F1E70168CA6822F0E8
:101390002002CA600168CA6822F48072CA600168CB
:1013A0004A6922F001024A61202180F83E10016B57
:1013B000012903D0FFF72EFE002008BD00210163A4
:1013C0000168CA6822F01002CA6001680A68D20681
:1013D00002D50A6849680091818DFFF7A0FCEBE710
:1013E00070B5044600680169E26821F44051114378
:1013F00001612169A0680843616908432168CA68DE
:1014000041F20C639A430243CA6020684169A269B1
:1014100021F44071114341611E492068884202D184
:10142000FFF78CF901E0FFF779F900EBC00101EB60
:101430000012606864218000B2FBF0F3B3FBF1F3AB
:101440006FF018067343B2FBF0F5B2FBF0F605EB54
:101450008305322303EB0515B5FBF1F5B6FBF1F679
:1014600005F0F00505EB0615B2FBF0F6B2FBF0F067
:10147000B0FBF1F06FF01802504306EB800003EB75
:101480000010B0FBF1F0216800F00F0028448860E4
:1014900070BD0000003801402DE9F0419846174624
:1014A0000E460446069D1DE0681C1BD02DB1FFF7BB
:1014B00001F8A0EB0800A84214D92068C16821F403
:1014C000D071C1602068416921F001014161202093
:1014D00084F83D0084F83E00002084F83C0003209E
:1014E000BDE8F0812068006836EA000004D00020E2
:1014F000B842D9D00020F3E70120F9E70148FFF70F
:1015000011BC000058000020FEE700000FB4084B9B
:1015100010B504A902AA039800F02CF8044602A909
:10152000002000F0C8F9204610BC5DF814FB000054
:10153000B71800080907090E002804DB00F1E020B5
:1015400080F80014704700F00F0000F1E02080F8F0
:10155000141D704702E008C8121F08C1002AFAD102
:1015600070477047002001E001C1121F002AFBD123
:10157000704700002DE9FF4F8BB0884605460026D6
:1015800006E025280BD0DDE90D1290476D1C761C76
:1015900028780028F5D10FB03046BDE8F08F002440
:1015A000A146A2460122AE4900E0044315F8013FDE
:1015B000203B02FA03F00842F7D128782A2810D0FD
:1015C0006FF02F022878A0F13001092915D809EB16
:1015D000890102EB410144F0020400EB01096D1C9A
:1015E000F0E758F8041B5FEA010903D544F40054FE
:1015F000C9F1000944F002046D1C28782E2817D187
:1016000015F8010F44F004042A280ED06FF02F02C1
:101610002878A0F1300109290AD80AEB8A0102EBE7
:10162000410100EB010A6D1CF2E758F804AB6D1C98
:1016300028786C280FD006DC4C2817D068280DD0ED
:101640006A2814D104E0742810D07A280FD10DE054
:1016500044F400140AE044F4801401E044F440141B
:101660006978814202D104F580146D1C6D1C2878C4
:10167000692865D006DC00288DD0632827D064282F
:1016800006D15DE06E2808D073282AD0752877D05F
:10169000DDE90D129047761CE0E0C4F30250022809
:1016A00009D003280DD0D8F8001004280DD00E6002
:1016B00008F10408D2E0D8F80010F217C1E900627E
:1016C000F6E7D8F800100E80F2E70E70F0E718F891
:1016D000041B8DF8001000208DF80100EB4601205E
:1016E00003E058F804BB4FF0FF3061074FF00007EC
:1016F00001D40AE07F1C57450DDA8742FADB1BF85C
:1017000007100029F6D106E07F1C8742FCDB1BF89E
:1017100007100029F8D1DDE90D23A9EB0700814668
:10172000214600F0B1F83044C61904E0DDE90D129D
:101730001BF8010B90477F1EF8D22146484688E0EF
:1017400058F8040BC4F302514FF00A0B032900D1DF
:1017500000B2042900D140B2002802DA40422D2113
:1017600002E0210505D52B218DF82410012104E08C
:1017700006E0E10710D02021F6E708AF089113E05A
:1017800058F8040BC4F302514FF00A0B032900D19F
:1017900080B2042900D1C0B20021EEE75946FEF71D
:1017A000E7FC303107F8011D0028F7D1ADEB070049
:1017B00000F1200B600702D524F4803401E04FF0E3
:1017C000010ADA4502DDAAEB0B0000E000208246A8
:1017D00000EB0B0108980144A9EB01000A90E0031B
:1017E00006D4DDE90D2321460A9800F04DF80644A1
:1017F0004FF0000908E009A911F80900DDE90D1210
:10180000904709F10109761C08998945F3DBE0034B
:101810000CD5DDE90D2321460A9800F035F8064481
:1018200004E0DDE90D1230209047761CBAF100018A
:10183000AAF1010AF5DC05E0DDE90D1217F8010B4C
:101840009047761CBBF10001ABF1010BF4DC0A9868
:101850002146DDE90D2300F005F806446D1C97E6EE
:10186000092801002DE9F041044600251E461746CF
:10187000880404D405E039462020B0476D1C641E5E
:10188000F9D52846BDE8F0812DE9F0410446002550
:101890001E469046C80301D5302700E02027880463
:1018A00004D505E041463846B0476D1C641EF9D5A5
:1018B0002846BDE8F0810A68531C0B601070704721
:1018C0008EB0342223496846FEF72EFCFEF700FE58
:1018D000FFF770FCFFF7FCFBFFF732FC1F481E49C7
:1018E0000C2201604FF4E131416000218160C16050
:1018F000C0E904128161C161FFF71AFB08B172B639
:10190000FEE717A16846FFF701FE82B2642369462D
:101910001248FFF781FB11484838FFF76DF90F4C6B
:101920004FF47A76483C2068456A3220FEF7BAFCCC
:101930002068406A0DA1401B82B26846FFF7E6FDB1
:1019400082B2642369460548FFF766FB3046FEF71E
:10195000A9FCE8E780190008003801405800002081
:1019600054696D657220746573740A00257520755D
:101970007320656C6170736564200D0A00000000BF
:101980005472616E736D697420697320776F726B26
:10199000696E670A000000000000000000000000FF
:1019A0000000000000000000000000000000000037
:1019B0000000000000000000000001020304060710
:1019C000080900000000010203040000EC190008EF
:1019D000000000201000000054150008FC19000849
:1019E00010000020900400006415000801000000B1
:0C19F00010000000000000000024F400C3
:04000005080000ED02
:00000001FF
